:02000000F828DE
:100006007B15FB1F0D280130F300F201F101F00111
:08001600FA0DF20CFF300800A6
:10001E007B14FB1F1A28F201FA1FFF30F200F100C9
:0A002E00F000FA0DF20CFF3008009C
:10003800FB14FB1F2628FF30F300F200F100F0004C
:08004800FA0DF20CFF30080074
:0E005000F201F101F001F801F30100300800A7
:10005E002000FB01FC01FA01730803196D28F21749
:10006E008E30F302F31B3E2803193E287028F30945
:10007E00F30A08307302031C5328F300F10D7208C3
:10008E00F100F20108307302031C5328F10DF10147
:10009E007308031D03105B28730803195B280310F4
:1000AE00F20CF10CF30B56287B1B711C6528031CFC
:1000BE006528F10A0319F20AF21B7C28FA1F7F2821
:1000CE00F209F109F10A0319F20A7F28F201F1018E
:1000DE007F287B14FB1F8228F201FA1F8228FF3033
:1000EE00F200F100FA0DF20C82280130FC00842897
:1000FE000030FC008428FF30FC00FC08031988281F
:0C010E000F207108F0007208F1000800DA
:10011A002000FB017308031D77080319E3287208FE
:10012A007606FA007708F3077E30031CA028F3024C
:10013A000318E628A328F302031CE9287208F8002A
:10014A007108FC007008FD00F817F6170310F20199
:10015A00F101F0011830A0007D1CBD287408F007D9
:10016A0075080318750FF10776080318760FF2075A
:10017A00F20CF10CF00CF80CFC0CFD0C0310A00BAB
:10018A00B128F21BCD28F80DF00DF10DF20DF30395
:10019A007B1B701CDF28F81FDF28F00A0319F10AFD
:1001AA000319F20A031DDF28F20CF10CF00CF30A12
:1001BA000319E628FA1FF2130030EB280130282031
:1001CA00EB2802301C20EB28043003200000080032
:1001DA0021008C100C100C1220302400950097017D
:0601EA0040309400080003
:1001F0002000A101A201A301A401F0302100990077
:100200008C0123008C0120000C16ED202000210819
:10021000F0002208F100F035F10DF035F10D6C30F1
:10022000700784008130713D85000008F0000131C5
:100230000008F10001310008F20001310008F3006C
:100240000030F4002830F5003330F6008A30F70033
:100250008D202F207008A3007108A4003330F00710
:100260000330F13D7008A3007108A4000030700451
:10027000F30071083038F4007308A3007408A40078
:100280000C127408F000F1017008240091000000C5
:10029000000000000000000020002308240091005E
:1002A00000000000000000000000000020000C160C
:1002B000A10A0319A20A00302202031D6129B430E9
:1002C0002102031C6A29A101A201A230FD00FD0B3D
:0802D0006729000006296B29D3
:1002D800003400340034003429345C340F34793469
:1002E8004D34F3340E347A348634383456347A3410
:1002F8004D34F3340E347B34EA34953432347B3461
:100308001934043456347B34B534A63479347B3408
:1003180072348A340E347C345234273420347C349A
:100328003334C43431347C341334613443347C344E
:10033800BD34E33454347C346634663466347C34F7
:10034800A234B43477347C346F34813404347D344B
:1003580071341B340D347D347434B53415347D3424
:100368003F3435341E347D340B34B53426347D3473
:10037800A0341A342F347D343434803437347D3407
:100388009234CB343F347D34D534093448347D3409
:10039800FB343A3450347D3407345F3458347D3478
:1003A800F734753460347D34B034723468347D3455
:1003B8004E34623470347D34B534373478347D3417
:1003C8000034003400347E340A34D73403347E34A5
:1003D8008734A73407347E34E8346A340B347E34E7
:1003E800BB3427340F347E347334D73412347E341C
:1003F80010347A3416347E3491340F341A347E34FF
:1004080084349E341D347E34CE34193421347E3401
:100418008A348E3424347E342B34F63427347E34B4
:1004280023344A342B347E348D3497342E347E343E
:10043800DC34D73431347E348134043435347E347A
:100448000B34243438347E3408343D343B347E3421
:10045800CD343B343E347E340534343441347E3438
:100468009334183444347E340734F03446347E34BC
:100478005E34BA3449347E340D3471344C347E34AD
:10048800A0341A344F347E341734B73451347E34A0
:100498005834393454347E340B34B53456347E34BD
:1004A8008734163459347E34763471345B347E3470
:1004B8002D34B2345D347E34C934E5345F347E344F
:1004C800BC34053462347E349334183464347E3456
:1004D800C234173466347E344734033468347E3487
:1004E8002334DB3469347E34E334A5346B347E340E
:1004F800FB345C346D347E34693400346F347E34BC
:100508002E34903470347E344A340C3472347E3451
:100518004A347B3473347E341434D03474347E34A7
:10052800C234173476347E343934453477347E34E3
:100538009534653478347E344734723479347E3473
:10054800C33464347A347E3423344A347B347E347E
:10055800DA341B347C347E34E834D9347C347E3449
:100568004D3484347D347E347B3414347E347E348C
:100578008D3497347E347E34F73406347F347E34B9
:10058800B73462347F347E344034A4347F347E34CC
:10059800AE34D8347F347E34E534F2347F347E345C
:1005A8000034003400347F34E534F2347F347E3450
:1005B800AE34D8347F347E344034A4347F347E342F
:1005C800B73462347F347E34F73406347F347E3473
:1005D8008D3497347E347E347B3414347E347E34C8
:1005E8004D3484347D347E34E834D9347C347E34DC
:1005F800DA341B347C347E3423344A347B347E34FE
:10060800C33464347A347E344734723479347E3473
:100618009534653478347E343934453477347E34CF
:10062800C234173476347E341434D03474347E347F
:100638004A347B3473347E344A340C3472347E3416
:100648002E34903470347E34693400346F347E3400
:10065800FB345C346D347E34E334A5346B347E343F
:100668002334DB3469347E344734033468347E34CD
:10067800C234173466347E349334183464347E3488
:10068800BC34053462347E34C934E5345F347E3496
:100698002D34B2345D347E34763471345B347E3438
:1006A8008734163459347E340B34B53456347E349A
:1006B8005834393454347E341734B73451347E3492
:1006C800A0341A344F347E340D3471344C347E34B3
:1006D8005E34BA3449347E340734F03446347E34D8
:1006E8009334183444347E340534343441347E34FD
:1006F800CD343B343E347E3408343D343B347E3490
:100708000B34243438347E348134043435347E3424
:10071800DC34D73431347E348D3497342E347E34FF
:1007280023344A342B347E342B34F63427347E3445
:100738008A348E3424347E34CE34193421347E34D1
:1007480084349E341D347E3491340F341A347E340C
:1007580010347A3416347E347334D73412347E34F9
:10076800BB3427340F347E34E8346A340B347E3497
:100778008734A73407347E340A34D73403347E34BC
:100788000034003400347E34B534373478347D3462
:100798004E34623470347D34B034723468347D340D
:1007A800F734753460347D3407345F3458347D341D
:1007B800FB343A3450347D34D534093448347D34EC
:1007C8009234CB343F347D343434803437347D3400
:1007D800A0341A342F347D340B34B53426347D34A8
:1007E8003F3435341E347D347434B53415347D3497
:1007F80071341B340D347D346F34813404347D34CA
:10080800A234B43477347C346634663466347C3449
:10081800BD34E33454347C341334613443347C348D
:100828003334C43431347C345234273420347C3467
:1008380072348A340E347C34B534A63479347B343B
:100848001934043456347B34EA34953432347B34E6
:100858004D34F3340E347B348634383456347A3499
:100868004D34F3340E347A3429345C340F3479340B
:020000040001F9
:04000E00843F131701
:00000001FF
