:02000000F32AE1
:0E000600F201F101F001F801F30100300800F1
:100014007B15FB1F14280130F300F201F101F001FC
:08002400FA0DF20CFF30080098
:08002C00FA1FF2130030080076
:10003400FB14FB1F2428FF30F300F200F100F00052
:08004400FA0DF20CFF30080078
:10004C007C185C28FC182D287C197B282628A001FC
:10005C007208031D4D287108F2007008F100780831
:10006C00F000F801A0157208031D4D287108F2006C
:10007C007008F100F001A01120167208031D4D2824
:10008C007108F200F101A015720803196F282008FD
:10009C00F302031D031C73280310F21B5C28F80DDC
:1000AC00F00DF10DF20DF30B532873287B1B701C14
:1000BC007728F81F7728F00A0319F10A0319F20AB6
:1000CC00031D7728F20CF10CF00CF30A03197B28B2
:1000DC0077280130FC0003207E280230FC000A2027
:1000EC007E280430FC0016207E280830FC001A20E4
:0400FC0000000800F8
:100100007B14FB1F8B28F201FA1FFF30F200F10075
:0A011000F000FA0DF20CFF300800B9
:06011A00FB15FF30080098
:10012000A0017208031DA5287108F2007008F100F3
:10013000F001A0157208031DA5287108F200F10155
:10014000A011201672080319B3282008F302031D1A
:10015000031CB7280310F21BBB28F00DF10DF20DA4
:10016000F30BAB28B7280130FC000320BE28023077
:0E017000FC000A20BE280430FC001620080007
:10017E007408003A031DD8287508003A031DD828C4
:10018E007608003A031DD8287708003A031DD828B0
:10019E00FF30F000FF30F1007F30F200FF30F3004F
:1001AE007229200077080319662973080319692933
:1001BE00720876068039FA00F217F617A001720857
:1001CE00F8007108FC007008FD007408FD02750847
:1001DE00031C750FFC027608031C760FF802F8015B
:1001EE00FC01FD01031C02290310F20CF10CF00CB2
:1001FE00F80C0130A0007708F302031C0C297E30A6
:10020E002007F30703186C2911297E302007F30706
:10021E00031C6F291830FA07FD0DFC0DF80DF00DBB
:10022E00F10DF20DA00D7408F0027508031C750F88
:10023E00F1027608031C760FF202760DA004201C44
:10024E002A297D1435297408F00775080318750FCF
:10025E00F10776080318760AF2077D10FA031F30AD
:10026E007A05031D13297B1B7D1C5C290310F00DE1
:10027E00F10DF20DA00D7408F0027508031C750F38
:10028E00F1027608031C760FF202760D2004013976
:10029E00FD070318FC0A0319F80A031D5C29F80C64
:1002AE00FC0CFD0CF30A03196C29FA1FF8137808DD
:1002BE00F2007C08F1007D08F00000307129013059
:1002CE008D20712902300320712904301A207129E2
:0802DE0008300A2000000800AE
:1002E6002000FB0173080319AF297208FA00F21700
:1002F6008E30F302F31FB229F309F30A08307302B2
:10030600031C9529F300F10D7208F100F201083083
:100316007302031C9529F300F10DF1017308031D07
:1003260003109D29730803199D290310F20CF10C83
:10033600F30B98297B1B711CA729031CA729F10A1B
:100346000319F20AF21BBE29FA1FC129F209F109A3
:10035600F10A0319F20AC129F201F101C1297B143C
:10036600FB1FC429F201FA1FC429FF30F200F10075
:10037600FA0DF20CC4290130FC00C6290030FC003D
:10038600C629FF30FC00FC080319CA298020710821
:08039600F0007208F1000800FC
:10039E0020002C08240091001418D629D329110806
:0403AE00F000080053
:1003B200200072087606A000F801F901730877029E
:1003C200031CFB297708FD007308F7007D08F30082
:1003D2007608FD007208F6007D08F2007508FD003F
:1003E2007108F5007D08F1007408FD007008F40042
:1003F2007D08F00077080319742A7208FA00F217D0
:10040200F61777087302F70003192E2A08307702CD
:10041200031C242AF7007408F9007508F400760812
:10042200F500F60108307702031C242AF70074084D
:10043200F9007508F400F50108307702031C242A3C
:100442007A08F200742A770803192E2A0310F60C90
:10045200F50CF40CF90CF70B272AA01F3B2AF9091B
:10046200F409F509F609F90A0319F40A0319F50A58
:100472000319F60A7908F80774080318740FF007CD
:1004820075080318750FF10776080318760FF2073F
:10049200A01B542A031C642AF20CF10CF00CF80C79
:1004A200F30F642A702A0318682AF809F009F1097F
:1004B200F209F80A0319F00A0319F10A0319F20AF8
:1004C2008030FA066C2A0130FC002620762A02309F
:1004D200FC002620762A0430FC009020762A083080
:0E04E200FC001A20762A0030FC000000080002
:1004F000FF302000A500FF30A600FF30A700FF302E
:10050000A800CF30A1000130A2002C30A3000030A1
:10051000A40021000C108C100C1524009501403013
:060520009400951608008E
:100526002000FB017308031D77080319E92A7208E6
:100536007606FA007708F3077E30031CA62AF30234
:100546000318EC2AA92AF302031CEF2A7208F80002
:100556007108FC007008FD00F817F6170310F20189
:10056600F101F0011830A0007D1CC32A7408F007C1
:1005760075080318750FF10776080318760FF2074A
:10058600F20CF10CF00CF80CFC0CFD0C0310A00B9B
:10059600B72AF21BD32AF80DF00DF10DF20DF30375
:1005A6007B1B701CE52AF81FE52AF00A0319F10ADD
:1005B6000319F20A031DE52AF20CF10CF00CF30AFA
:1005C6000319EC2AFA1FF2130030F12A0130032036
:1005D600F12A02301A20F12A04300A20000008000D
:1005E6002000AA01AB01F030210099008C01230004
:1005F6008C0120000C16782220008C162A08F000A8
:100606002B08F100F035F10DF035F10D6C30700767
:1006160084008330713D85000008F0000131000838
:10062600F10001310008F20001310008F30000304A
:10063600F4000030F5006030F6008030F7009322B9
:100646000030F4000030F5000030F6007F30F7008F
:10065600D9218C128C160030F400F030F5007F3072
:10066600F6008A30F70093220030F4000030F500DF
:100676002030F6008130F700BF2073218C128C16D3
:100686007108F2000030F11BFF30F3000F307205E5
:10069600AC003030AC047008A9008C120C128C1619
:1006A600CF2120008C128C162908AC00CF21200007
:1006B6008C120C16AA0A0319AB0A00302B02031D72
:1006C600662BB4302A02031C6A2BAA01AB01FF2A4F
:0206D6006B2B8C
:1006D800003400340034003429345C340F34793465
:1006E8004D34F3340E347A348634383456347A340C
:1006F8004D34F3340E347B34EA34953432347B345D
:100708001934043456347B34B534A63479347B3404
:1007180072348A340E347C345234273420347C3496
:100728003334C43431347C341334613443347C344A
:10073800BD34E33454347C346634663466347C34F3
:10074800A234B43477347C346F34813404347D3447
:1007580071341B340D347D347434B53415347D3420
:100768003F3435341E347D340B34B53426347D346F
:10077800A0341A342F347D343434803437347D3403
:100788009234CB343F347D34D534093448347D3405
:10079800FB343A3450347D3407345F3458347D3474
:1007A800F734753460347D34B034723468347D3451
:1007B8004E34623470347D34B534373478347D3413
:1007C8000034003400347E340A34D73403347E34A1
:1007D8008734A73407347E34E8346A340B347E34E3
:1007E800BB3427340F347E347334D73412347E3418
:1007F80010347A3416347E3491340F341A347E34FB
:1008080084349E341D347E34CE34193421347E34FD
:100818008A348E3424347E342B34F63427347E34B0
:1008280023344A342B347E348D3497342E347E343A
:10083800DC34D73431347E348134043435347E3476
:100848000B34243438347E3408343D343B347E341D
:10085800CD343B343E347E340534343441347E3434
:100868009334183444347E340734F03446347E34B8
:100878005E34BA3449347E340D3471344C347E34A9
:10088800A0341A344F347E341734B73451347E349C
:100898005834393454347E340B34B53456347E34B9
:1008A8008734163459347E34763471345B347E346C
:1008B8002D34B2345D347E34C934E5345F347E344B
:1008C800BC34053462347E349334183464347E3452
:1008D800C234173466347E344734033468347E3483
:1008E8002334DB3469347E34E334A5346B347E340A
:1008F800FB345C346D347E34693400346F347E34B8
:100908002E34903470347E344A340C3472347E344D
:100918004A347B3473347E341434D03474347E34A3
:10092800C234173476347E343934453477347E34DF
:100938009534653478347E344734723479347E346F
:10094800C33464347A347E3423344A347B347E347A
:10095800DA341B347C347E34E834D9347C347E3445
:100968004D3484347D347E347B3414347E347E3488
:100978008D3497347E347E34F73406347F347E34B5
:10098800B73462347F347E344034A4347F347E34C8
:10099800AE34D8347F347E34E534F2347F347E3458
:1009A8000034003400347F34E534F2347F347E344C
:1009B800AE34D8347F347E344034A4347F347E342B
:1009C800B73462347F347E34F73406347F347E346F
:1009D8008D3497347E347E347B3414347E347E34C4
:1009E8004D3484347D347E34E834D9347C347E34D8
:1009F800DA341B347C347E3423344A347B347E34FA
:100A0800C33464347A347E344734723479347E346F
:100A18009534653478347E343934453477347E34CB
:100A2800C234173476347E341434D03474347E347B
:100A38004A347B3473347E344A340C3472347E3412
:100A48002E34903470347E34693400346F347E34FC
:100A5800FB345C346D347E34E334A5346B347E343B
:100A68002334DB3469347E344734033468347E34C9
:100A7800C234173466347E349334183464347E3484
:100A8800BC34053462347E34C934E5345F347E3492
:100A98002D34B2345D347E34763471345B347E3434
:100AA8008734163459347E340B34B53456347E3496
:100AB8005834393454347E341734B73451347E348E
:100AC800A0341A344F347E340D3471344C347E34AF
:100AD8005E34BA3449347E340734F03446347E34D4
:100AE8009334183444347E340534343441347E34F9
:100AF800CD343B343E347E3408343D343B347E348C
:100B08000B34243438347E348134043435347E3420
:100B1800DC34D73431347E348D3497342E347E34FB
:100B280023344A342B347E342B34F63427347E3441
:100B38008A348E3424347E34CE34193421347E34CD
:100B480084349E341D347E3491340F341A347E3408
:100B580010347A3416347E347334D73412347E34F5
:100B6800BB3427340F347E34E8346A340B347E3493
:100B78008734A73407347E340A34D73403347E34B8
:100B88000034003400347E34B534373478347D345E
:100B98004E34623470347D34B034723468347D3409
:100BA800F734753460347D3407345F3458347D3419
:100BB800FB343A3450347D34D534093448347D34E8
:100BC8009234CB343F347D343434803437347D34FC
:100BD800A0341A342F347D340B34B53426347D34A4
:100BE8003F3435341E347D347434B53415347D3493
:100BF80071341B340D347D346F34813404347D34C6
:100C0800A234B43477347C346634663466347C3445
:100C1800BD34E33454347C341334613443347C3489
:100C28003334C43431347C345234273420347C3463
:100C380072348A340E347C34B534A63479347B3437
:100C48001934043456347B34EA34953432347B34E2
:100C58004D34F3340E347B348634383456347A3495
:100C68004D34F3340E347A3429345C340F34793407
:020000040001F9
:04000E00843F131701
:00000001FF
