:02000000F52ADF
:0E000600F201F101F001F801F30100300800F1
:100014007B15FB1F14280130F300F201F101F001FC
:08002400FA0DF20CFF30080098
:08002C00FA1FF2130030080076
:10003400FB14FB1F2428FF30F300F200F100F00052
:08004400FA0DF20CFF30080078
:10004C007C185C28FC182D287C197B282628A001FC
:10005C007208031D4D287108F2007008F100780831
:10006C00F000F801A0157208031D4D287108F2006C
:10007C007008F100F001A01120167208031D4D2824
:10008C007108F200F101A015720803196F282008FD
:10009C00F302031D031C73280310F21B5C28F80DDC
:1000AC00F00DF10DF20DF30B532873287B1B701C14
:1000BC007728F81F7728F00A0319F10A0319F20AB6
:1000CC00031D7728F20CF10CF00CF30A03197B28B2
:1000DC0077280130FC0003207E280230FC000A2027
:1000EC007E280430FC0016207E280830FC001A20E4
:0400FC0000000800F8
:100100007B14FB1F8B28F201FA1FFF30F200F10075
:0A011000F000FA0DF20CFF300800B9
:06011A00FB15FF30080098
:10012000A0017208031DA5287108F2007008F100F3
:10013000F001A0157208031DA5287108F200F10155
:10014000A011201672080319B3282008F302031D1A
:10015000031CB7280310F21BBB28F00DF10DF20DA4
:10016000F30BAB28B7280130FC000320BE28023077
:0E017000FC000A20BE280430FC001620080007
:10017E007408003A031DD8287508003A031DD828C4
:10018E007608003A031DD8287708003A031DD828B0
:10019E00FF30F000FF30F1007F30F200FF30F3004F
:1001AE007229200077080319662973080319692933
:1001BE00720876068039FA00F217F617A001720857
:1001CE00F8007108FC007008FD007408FD02750847
:1001DE00031C750FFC027608031C760FF802F8015B
:1001EE00FC01FD01031C02290310F20CF10CF00CB2
:1001FE00F80C0130A0007708F302031C0C297E30A6
:10020E002007F30703186C2911297E302007F30706
:10021E00031C6F291830FA07FD0DFC0DF80DF00DBB
:10022E00F10DF20DA00D7408F0027508031C750F88
:10023E00F1027608031C760FF202760DA004201C44
:10024E002A297D1435297408F00775080318750FCF
:10025E00F10776080318760AF2077D10FA031F30AD
:10026E007A05031D13297B1B7D1C5C290310F00DE1
:10027E00F10DF20DA00D7408F0027508031C750F38
:10028E00F1027608031C760FF202760D2004013976
:10029E00FD070318FC0A0319F80A031D5C29F80C64
:1002AE00FC0CFD0CF30A03196C29FA1FF8137808DD
:1002BE00F2007C08F1007D08F00000307129013059
:1002CE008D20712902300320712904301A207129E2
:0802DE0008300A2000000800AE
:1002E6002000FB01FC01FA0173080319B129F2177A
:1002F6008E30F302F31B822903198229B429F309EC
:10030600F30A08307302031C9729F300F10D7208F3
:10031600F100F20108307302031C9729F10DF10177
:100326007308031D03109F29730803199F290310DF
:10033600F20CF10CF30B9A297B1B711CA929031CE7
:10034600A929F10A0319F20AF21BC029FA1FC329C7
:10035600F209F109F10A0319F20AC329F201F101BE
:10036600C3297B14FB1FC629F201FA1FC629FF30D9
:10037600F200F100FA0DF20CC6290130FC00C82982
:100386000030FC00C829FF30FC00FC080319CC290A
:0C03960080207108F0007208F1000800DF
:1003A20020002C08240091001418D829D5291108FE
:0403B200F00008004F
:1003B600200072087606A000F801F901730877029A
:1003C600031CFD297708FD007308F7007D08F3007C
:1003D6007608FD007208F6007D08F2007508FD003B
:1003E6007108F5007D08F1007408FD007008F4003E
:1003F6007D08F00077080319762A7208FA00F217CA
:10040600F61777087302F7000319302A08307702C7
:10041600031C262AF7007408F9007508F40076080C
:10042600F500F60108307702031C262AF700740847
:10043600F9007508F400F50108307702031C262A36
:100446007A08F200762A77080319302A0310F60C88
:10045600F50CF40CF90CF70B292AA01F3D2AF90913
:10046600F409F509F609F90A0319F40A0319F50A54
:100476000319F60A7908F80774080318740FF007C9
:1004860075080318750FF10776080318760FF2073B
:10049600A01B562A031C662AF20CF10CF00CF80C71
:1004A600F30F662A722A03186A2AF809F009F10975
:1004B600F209F80A0319F00A0319F10A0319F20AF4
:1004C6008030FA066E2A0130FC002620782A023097
:1004D600FC002620782A0430FC009020782A083078
:0E04E600FC001A20782A0030FC0000000800FC
:1004F400FF302000A500FF30A600FF30A700FF302A
:10050400A800D130A1000130A2002C30A30000309B
:10051400A40021000C108C100C152400950140300F
:060524009400951608008A
:10052A002000FB017308031D77080319EB2A7208E0
:10053A007606FA007708F3077E30031CA82AF3022E
:10054A000318EE2AAB2AF302031CF12A7208F800F8
:10055A007108FC007008FD00F817F6170310F20185
:10056A00F101F0011830A0007D1CC52A7408F007BB
:10057A0075080318750FF10776080318760FF20746
:10058A00F20CF10CF00CF80CFC0CFD0C0310A00B97
:10059A00B92AF21BD52AF80DF00DF10DF20DF3036D
:1005AA007B1B701CE72AF81FE72AF00A0319F10AD5
:1005BA000319F20A031DE72AF20CF10CF00CF30AF4
:1005CA000319EE2AFA1FF2130030F32A013003202E
:1005DA00F32A02301A20F32A04300A200000080005
:1005EA002000AA01AB01F030210099000C12200072
:1005FA000C167A2220002A08F0002B08F100F035A8
:10060A00F10DF035F10D5F30700784008330713DD4
:10061A0085000008F00001310008F10001310008EE
:10062A00F20001310008F3000030F4000030F50058
:10063A006030F6008030F70095220030F400003078
:10064A00F5000030F6007F30F700DB210030F400BF
:10065A00F030F5007F30F6008A30F700952200303E
:10066A00F4000030F5002030F6008130F700BF209A
:10067A0073217108F200F3010F307205AC003030BB
:10068A00AC047008A9000C12D12120002908AC0082
:10069A00D12120000C16AA0A0319AB0A00302B023A
:1006AA00031D592BB4302A02031C5D2BAA01AB018E
:0406BA00FF2A5E2B8A
:1006BE0000340034003400344D34F3340E347A34C4
:1006CE004D34F3340E347B341934043456347B34C5
:1006DE0072348A340E347C343334C43431347C3442
:1006EE00BD34E33454347C34A234B43477347C34A3
:1006FE0071341B340D347D343F3435341E347D3427
:10070E00A0341A342F347D349234CB343F347D34BC
:10071E00FB343A3450347D34F734753460347D34E0
:10072E004E34623470347D340034003400347E3400
:10073E008734A73407347E34BB3427340F347E34E9
:10074E0010347A3416347E3484349E341D347E3420
:10075E008A348E3424347E3423344A342B347E341B
:10076E00DC34D73431347E340B34243438347E3494
:10077E00CD343B343E347E349334183444347E349A
:10078E005E34BA3449347E34A0341A344F347E3455
:10079E005834393454347E348734163459347E34D4
:1007AE002D34B2345D347E34BC34053462347E3440
:1007BE00C234173466347E342334DB3469347E34E9
:1007CE00FB345C346D347E342E34903470347E348D
:1007DE004A347B3473347E34C234173476347E34E8
:1007EE009534653478347E34C33464347A347E344C
:1007FE00DA341B347C347E344D3484347D347E3490
:10080E008D3497347E347E34B73462347F347E3404
:10081E00AE34D8347F347E340034003400347F3428
:10082E00AE34D8347F347E34B73462347F347E3481
:10083E008D3497347E347E344D3484347D347E341E
:10084E00DA341B347C347E34C33464347A347E34EC
:10085E009534653478347E34C234173476347E342D
:10086E004A347B3473347E342E34903470347E3478
:10087E00FB345C346D347E342334DB3469347E34A3
:10088E00C234173466347E34BC34053462347E345C
:10089E002D34B2345D347E348734163459347E347C
:1008AE005834393454347E34A0341A344F347E34B0
:1008BE005E34BA3449347E349334183444347E343E
:1008CE00CD343B343E347E340B34243438347E34D1
:1008DE00DC34D73431347E3423344A342B347E34F2
:1008EE008A348E3424347E3484349E341D347E34E3
:1008FE0010347A3416347E34BB3427340F347E34BD
:10090E008734A73407347E340034003400347E3408
:10091E004E34623470347D34F734753460347D3443
:10092E00FB343A3450347D349234CB343F347D34FE
:10093E00A0341A342F347D343F3435341E347D3494
:10094E0071341B340D347D34A234B43477347C349A
:10095E00BD34E33454347C343334C43431347C34D5
:10096E0072348A340E347C341934043456347B3465
:10097E004D34F3340E347B344D34F3340E347A3438
:10098E0000340034003400344D34F3348E347A3471
:10099E004D34F3348E347B3419340434D6347B34F2
:1009AE0072348A348E347C343334C434B1347C346F
:1009BE00BD34E334D4347C34A234B434F7347C34D0
:1009CE0071341B348D347D343F3435349E347D3454
:1009DE00A0341A34AF347D349234CB34BF347D34EA
:1009EE00FB343A34D0347D34F7347534E0347D340E
:1009FE004E346234F0347D340034003480347E342E
:100A0E008734A73487347E34BB3427348F347E3416
:100A1E0010347A3496347E3484349E349D347E344D
:100A2E008A348E34A4347E3423344A34AB347E3448
:100A3E00DC34D734B1347E340B342434B8347E34C1
:100A4E00CD343B34BE347E3493341834C4347E34C7
:100A5E005E34BA34C9347E34A0341A34CF347E3482
:100A6E0058343934D4347E3487341634D9347E3401
:100A7E002D34B234DD347E34BC340534E2347E346D
:100A8E00C2341734E6347E342334DB34E9347E3416
:100A9E00FB345C34ED347E342E349034F0347E34BA
:100AAE004A347B34F3347E34C2341734F6347E3415
:100ABE0095346534F8347E34C3346434FA347E3479
:100ACE00DA341B34FC347E344D348434FD347E34BD
:100ADE008D349734FE347E34B7346234FF347E3432
:100AEE00AE34D834FF347E340034003480347F3456
:100AFE00AE34D834FF347E34B7346234FF347E34AF
:100B0E008D349734FE347E344D348434FD347E344B
:100B1E00DA341B34FC347E34C3346434FA347E3419
:100B2E0095346534F8347E34C2341734F6347E345A
:100B3E004A347B34F3347E342E349034F0347E34A5
:100B4E00FB345C34ED347E342334DB34E9347E34D0
:100B5E00C2341734E6347E34BC340534E2347E3489
:100B6E002D34B234DD347E3487341634D9347E34A9
:100B7E0058343934D4347E34A0341A34CF347E34DD
:100B8E005E34BA34C9347E3493341834C4347E346B
:100B9E00CD343B34BE347E340B342434B8347E34FE
:100BAE00DC34D734B1347E3423344A34AB347E341F
:100BBE008A348E34A4347E3484349E349D347E3410
:100BCE0010347A3496347E34BB3427348F347E34EA
:100BDE008734A73487347E340034003480347E3436
:100BEE004E346234F0347D34F7347534E0347D3471
:100BFE00FB343A34D0347D349234CB34BF347D342C
:100C0E00A0341A34AF347D343F3435349E347D34C1
:100C1E0071341B348D347D34A234B434F7347C34C7
:100C2E00BD34E334D4347C343334C434B1347C3402
:100C3E0072348A348E347C3419340434D6347B3492
:100C4E004D34F3348E347B344D34F3348E347A3465
:020000040001F9
:04000E00843F131701
:00000001FF
