:02000000312E9F
:08000600FA1FF213003008009C
:0E000E00F201F101F001F801F30100300800E9
:10001C007B15FB1F18280130F300F201F101F001F0
:08002C00FA0DF20CFF30080090
:10003400FB14FB1F2428FF30F300F200F100F00052
:08004400FA0DF20CFF30080078
:10004C007C185C28FC182D287C197B282628A001FC
:10005C007208031D4D287108F2007008F100780831
:10006C00F000F801A0157208031D4D287108F2006C
:10007C007008F100F001A01120167208031D4D2824
:10008C007108F200F101A015720803196F282008FD
:10009C00F302031D031C73280310F21B5C28F80DDC
:1000AC00F00DF10DF20DF30B532873287B1B701C14
:1000BC007728F81F7728F00A0319F10A0319F20AB6
:1000CC00031D7728F20CF10CF00CF30A03197B28B2
:1000DC0077280130FC0007207E280230FC000E201F
:1000EC007E280430FC0003207E280830FC001A20F7
:0400FC0000000800F8
:10010000A0017208031D95287108F2007008F10023
:10011000F001A0157208031D95287108F200F10185
:10012000A011201672080319A3282008F302031D4A
:10013000031CA7280310F21BAB28F00DF10DF20DE4
:10014000F30B9B28A7280130FC000720AE280230C3
:0E015000FC000E20AE280430FC000320080046
:10015E00200072087606A000F801F90173087702F4
:10016E00031CD1287708FD007308F7007D08F30003
:10017E007608FD007208F6007D08F2007508FD0095
:10018E007108F5007D08F1007408FD007008F40098
:10019E007D08F000770803194A297208FA00F21751
:1001AE00F61777087302F70003190429083077024F
:1001BE00031CFA28F7007408F9007508F400760895
:1001CE00F500F60108307702031CFA28F7007408D0
:1001DE00F9007508F400F50108307702031CFA28BF
:1001EE007A08F2004A297708031904290310F60C3D
:1001FE00F50CF40CF90CF70BFD28A01F1129F909C9
:10020E00F409F509F609F90A0319F40A0319F50AAE
:10021E000319F60A7908F80774080318740FF00723
:10022E0075080318750FF10776080318760FF20795
:10023E00A01B2A29031C3A29F20CF10CF00CF80C25
:10024E00F30F3A29462903183E29F809F009F10956
:10025E00F209F80A0319F00A0319F10A0319F20A4E
:10026E008030FA0642290130FC0026204C2902304B
:10027E00FC0026204C290430FC0080204C2908303C
:0E028E00FC001A204C290030FC000000080083
:10029C007B14FB1F5929F201FA1FFF30F200F10009
:0A02AC00F000FA0DF20CFF3008001C
:1002B6002000FA017308031D7A147708031DFA1447
:1002C6007A080319A629033A031971297A186E299F
:1002D600F61FA429A229F21FA229A429720880398F
:1002E600FA00F21376088039F6137A0603197F2985
:1002F6007A080319A229A429770873020319862903
:10030600031C9A299E297608720203198D29031C5B
:100316009A299E297508710203199429031C9A29A2
:100326009E29740870020319A62903189E29FA0843
:100336000319A429A229FA080319A229A429031436
:0E034600080003100800031403150800080047
:0A03540020008030F606AF200800FC
:10035E0020007008F8007108F0007208F1007308B0
:10036E00F200F301FB01FC019E30F300FA01F21FD3
:10037E00CC29F809F009F109F209F80A0319F00A73
:10038E000319F10A0319F20AFA170230FC002620AB
:02039E00080055
:0603A000FB15FF30080010
:1003A6002000FB017308031D77080319292A720828
:1003B6007606FA007708F3077E30031CE629F30277
:1003C60003182C2AE929F302031C2F2A7208F800C5
:1003D6007108FC007008FD00F817F6170310F2010B
:1003E600F101F0011830A0007D1C032A7408F00703
:1003F60075080318750FF10776080318760FF207CC
:10040600F20CF10CF00CF80CFC0CFD0C0310A00B1C
:10041600F729F21B132AF80DF00DF10DF20DF30377
:100426007B1B701C252AF81F252AF00A0319F10ADE
:100436000319F20A031D252AF20CF10CF00CF30A3B
:1004460003192C2AFA1FF2130030312A0130072033
:10045600312A02301A20312A04300E20000008000A
:100466002000FB01FC01F80173080319AA2A72088F
:10047600FA00F2179E30F302F31F9A2AF309F30AE1
:1004860008307302031C6F2AF300F80D7008F80099
:100496007108F0007208F100F20108307302031CC3
:1004A6006F2AF300F80D7008F8007108F000F101EA
:1004B60008307302031C6F2AF300F80D7008F80069
:1004C600F00108307302031C6F2AF300F80DF801DF
:1004D6007308031D0310792A73080319792A031078
:1004E600F20CF10CF00CF80CF30B722A7B1B781C47
:1004F600872A031C872AF80A0319F00A0319F10A46
:100506000319F20AF21BA72AFA1FAA2AF209F1090D
:10051600F009F809F80A0319F00A0319F10A031990
:10052600F20AAA2AF201F101F001F801AA2A7B14C3
:10053600FB1FAD2AF201FA1FAD2AF200F100F0000E
:10054600F800FA0DF20CAD2A0130FC00AF2A00309B
:10055600FC00AF2AFF30FC00FC080319B32A4E2129
:100566007208F3007108F2007008F1007808F000D4
:0205760008007B
:100578007408003A031DD52A7508003A031DD52AC8
:100588007608003A031DD52A7708003A031DD52AB4
:10059800FF30F000FF30F1007F30F200FF30F30051
:1005A8006F2B200077080319632B73080319662B38
:1005B800720876068039FA00F217F617A001720859
:1005C800F8007108FC007008FD007408FD02750849
:1005D800031C750FFC027608031C760FF802F8015D
:1005E800FC01FD01031CFF2A0310F20CF10CF00CB6
:1005F800F80C0130A0007708F302031C092B7E30A9
:100608002007F3070318692B0E2B7E302007F3070A
:10061800031C6C2B1830FA07FD0DFC0DF80DF00DBE
:10062800F10DF20DA00D7408F0027508031C750F8A
:10063800F1027608031C760FF202760DA004201C46
:10064800272B7D14322B7408F00775080318750FD3
:10065800F10776080318760AF2077D10FA031F30AF
:100668007A05031D102B7B1B7D1C592B0310F00DE5
:10067800F10DF20DA00D7408F0027508031C750F3A
:10068800F1027608031C760FF202760D2004013978
:10069800FD070318FC0A0319F80A031D592BF80C67
:1006A800FC0CFD0CF30A0319692BFA1FF8137808E0
:1006B800F2007C08F1007D08F00000306E2B01305C
:1006C800D0216E2B023007206E2B04301A206E2B9F
:0806D80008300E2000000800AC
:1006E00020003108F000F101F201F301FF30F005C4
:1006F0000030F1057008B6007108B7007F30700255
:10070000F2000030713BF3007208B6007308B700C6
:1007100080307306F00080307002031D912B003092
:1007200072020318B52BF401F501F601F7012E084A
:10073000F0002F08F1003008F2003108F3005B21CF
:10074000013003180030F00070080319B02B00309E
:10075000F0000030F1008030F2007F30F3000A2C0E
:10076000F001F101F201F3010A2C3708003C031DEE
:10077000BB2B3608183C0318C62B2E08F0002F0898
:10078000F1003008F2003108F3000A2C2E08F000C6
:100790002F08F1003008F2003108F3003322AF21B6
:1007A0007008B2007108B3007208B4007308B50095
:1007B0007008F4007108F5007208F6007308F7007D
:1007C0002E08F0002F08F1003008F2003108F30085
:1007D0005B21013003180030F00070080319022C6F
:1007E0000030F4000030F5000030F6007F30F700F4
:1007F0003208F0003308F1003408F2003508F30045
:10080000AA210A2C3208F0003308F1003408F20063
:060810003508F3000800AA
:1008160020003408F0003508F100F035F10DF03510
:10082600F10D7008320784007108333D8500000819
:10083600B60001310008B70001310008B8000131E7
:100846000008B900340835040319612C2E08F0009D
:100856002F08F1003008F2003108F3003608F400E2
:100866003708F5003808F6003908F700D3210130BB
:10087600B4020030B53B3408F4003508F500F43511
:10088600F50DF435F50D7408320784007508333D0F
:1008960085000008F40001310008F5000131000868
:1008A600F60001310008F700AF207008B6007108A5
:1008B600B7007208B8007308B900252C3608F00096
:0E08C6003708F1003808F2003908F300080086
:1008D4002000FB01FC01FA0173080319A82CF2178C
:1008E4008E30F302F31B792C0319792CAB2CF3090A
:1008F400F30A08307302031C8E2CF300F10D720806
:10090400F100F20108307302031C8E2CF10DF10189
:100914007308031D0310962C73080319962C0310F7
:10092400F20CF10CF30B912C7B1B711CA02C031CFF
:10093400A02CF10A0319F20AF21BB72CFA1FBA2CE5
:10094400F209F109F10A0319F20ABA2CF201F101D0
:10095400BA2C7B14FB1FBD2CF201FA1FBD2CFF30F7
:10096400F200F100FA0DF20CBD2C0130FC00BF2C9A
:100974000030FC00BF2CFF30FC00FC080319C32C22
:0C0984004E217108F0007208F10008001C
:100990002000AD01F401F501F601F7012508F00092
:1009A0002608F1002708F2002808F3005B21013037
:1009B00003180030F00070080319E82C0030A50679
:1009C0000030A6068030A7060030A8060130AD0032
:1009D0002508F0002608F1002708F2002808F30097
:1009E0008330F400F930F5002230F6007C30F70057
:1009F000D3217008A5007108A6007208A70073082B
:100A0000A8007008AE007108AF007208B00073084B
:100A1000B10070237008F4007108F5007208F60048
:100A20007308F7002508F0002608F1002708F200F7
:100A30002808F300AA210030F4000030F50000304F
:100A4000F6008130F700D3217008A5007108A600D8
:100A50007208A7007308A8007008F4007108F50078
:100A60007208F6007308F7000030F0000030F10063
:100A70000030F2008030F3005B21013003180030B9
:100A8000F00070080319622D0030F4000030F5000A
:100A90000030F6008030F7002508F0002608F1004D
:100AA0002708F2002808F300AA217008A5007108A1
:100AB000A6007208A7007308A8002D080130031DC6
:100AC0000030AD002508F4002608F5002708F600E0
:100AD0002808F7000030F0000030F1000030F2008C
:100AE0007F30F3005B21013003180030F000700804
:100AF0000319932D2508F4002608F5002708F600B1
:100B00002808F7000030F0000030F1000030F2005B
:100B10008030F300AA217008A5007108A6007208B1
:100B2000A7007308A8002508F0002608F100270890
:100B3000F2002808F3002508F4002608F50027082D
:100B4000F6002808F700D3217008A9007108AA0050
:100B50007208AB007308AC007008AE007108AF00FB
:100B60007208B0007308B100A730B2008630B3003D
:100B70000430B4000030B5000B242508F40026082A
:100B8000F5002708F6002808F700D3217008A50013
:100B90007108A6007208A7007308A8002908AE0013
:100BA0002A08AF002B08B0002C08B100BB30B200FF
:100BB0008630B3000330B4000030B5000B24700859
:100BC000F4007108F5007208F6007308F7002508B4
:100BD000F0002608F1002708F2002808F300BC22E4
:100BE0007008A5007108A6007208A7007308A80085
:100BF0002D080319082E00302506F00000302606C7
:100C0000F10080302706F20000302806F300102E95
:100C10002508F0002608F1002708F2002808F30054
:020C20000800CA
:100C220020007008F8007108F000F101F201F301F0
:100C3200FB01FC019630F300FA017008F10078081C
:0A0C4200F000F801F2018020080024
:100C4C0021008C100C100C12203024009500970100
:060C5C0040309400080086
:100C62002000A101A201A301A401F03021009900FA
:100C72008C0123008C0120000C162626200021085E
:100C8200F0002208F10011263930F400FA30F500A4
:100C92000E30F6007930F700D3217008A5007108F4
:100CA200A6007208A7007308A800C8240030F40048
:100CB2002830F5003330F6008A30F700D3216A2459
:100CC2007008A3007108A4003330F0070330F13D2F
:100CD2007008A3007108A40000307004F3007108CA
:100CE2003038F4007308A3007408A4000C127408CE
:100CF200F000F101700824009100000000000000E3
:100D020000000000200023082400910000000000E1
:100D1200000000000000000020000C16A10A0319C8
:100D2200A20A00302202031D982EB4302102031CB5
:100D3200A52EA101A2010A30FC00A830FD00FD0B86
:0C0D4200A02EFC0BA02E00003F2EA62EC1
:100D4E00EC34F3344A3490343534953495348F344E
:100D5E001734C1345C348B34FD34DB34ED348634DB
:080D6E007234B33433348034D5
:100D76002B343434013490347F349D3430348B3406
:100D8600E734FF34593485340034003400347F347A
:020000040001F9
:04000E00843F131701
:00000001FF
