:020000004B2E85
:100006007B15FB1F0D280130F300F201F101F00111
:08001600FA0DF20CFF300800A6
:0E001E00F201F101F001F801F30100300800D9
:08002C00FA1FF2130030080076
:10003400FB14FB1F2428FF30F300F200F100F00052
:08004400FA0DF20CFF30080078
:10004C007C185C28FC182D287C197B282628A001FC
:10005C007208031D4D287108F2007008F100780831
:10006C00F000F801A0157208031D4D287108F2006C
:10007C007008F100F001A01120167208031D4D2824
:10008C007108F200F101A015720803196F282008FD
:10009C00F302031D031C73280310F21B5C28F80DDC
:1000AC00F00DF10DF20DF30B532873287B1B701C14
:1000BC007728F81F7728F00A0319F10A0319F20AB6
:1000CC00031D7728F20CF10CF00CF30A03197B28B2
:1000DC0077280130FC000F207E280230FC00032022
:1000EC007E280430FC0016207E280830FC001A20E4
:0400FC0000000800F8
:10010000A0017208031D95287108F2007008F10023
:10011000F001A0157208031D95287108F200F10185
:10012000A011201672080319A3282008F302031D4A
:10013000031CA7280310F21BAB28F00DF10DF20DE4
:10014000F30B9B28A7280130FC000F20AE280230BB
:0E015000FC000320AE280430FC00162008003E
:10015E00200072087606A000F801F90173087702F4
:10016E00031CD1287708FD007308F7007D08F30003
:10017E007608FD007208F6007D08F2007508FD0095
:10018E007108F5007D08F1007408FD007008F40098
:10019E007D08F000770803194A297208FA00F21751
:1001AE00F61777087302F70003190429083077024F
:1001BE00031CFA28F7007408F9007508F400760895
:1001CE00F500F60108307702031CFA28F7007408D0
:1001DE00F9007508F400F50108307702031CFA28BF
:1001EE007A08F2004A297708031904290310F60C3D
:1001FE00F50CF40CF90CF70BFD28A01F1129F909C9
:10020E00F409F509F609F90A0319F40A0319F50AAE
:10021E000319F60A7908F80774080318740FF00723
:10022E0075080318750FF10776080318760FF20795
:10023E00A01B2A29031C3A29F20CF10CF00CF80C25
:10024E00F30F3A29462903183E29F809F009F10956
:10025E00F209F80A0319F00A0319F10A0319F20A4E
:10026E008030FA0642290130FC0026204C2902304B
:10027E00FC0026204C290430FC0080204C2908303C
:0E028E00FC001A204C290030FC000000080083
:10029C007B14FB1F5929F201FA1FFF30F200F10009
:0A02AC00F000FA0DF20CFF3008001C
:0A02B60020008030F606AF2008009B
:1002C0002000FA017308031D7A147708031DFA143D
:1002D0007A080319AB29033A031976297A18732986
:1002E000F61FA929A729F21FA729A9297208803971
:1002F000FA00F21376088039F6137A060319842976
:100300007A080319A729A9297708730203198B29E9
:10031000031C9F29A3297608720203199229031C42
:100320009F29A3297508710203199929031C9F2984
:10033000A329740870020319AB290318A329FA082A
:100340000319A929A729FA080319A729A929031418
:0E03500008000310080003140315080008003D
:10035E0020007008F8007108F0007208F1007308B0
:10036E00F200F301FB01FC019E30F300FA01F21FD3
:10037E00CC29F809F009F109F209F80A0319F00A73
:10038E000319F10A0319F20AFA170230FC002620AB
:02039E00080055
:1003A0002000FB017308031D77080319262A720831
:1003B0007606FA007708F3077E30031CE329F30280
:1003C0000318292AE629F302031C2C2A7208F800D4
:1003D0007108FC007008FD00F817F6170310F20111
:1003E000F101F0011830A0007D1C002A7408F0070C
:1003F00075080318750FF10776080318760FF207D2
:10040000F20CF10CF00CF80CFC0CFD0C0310A00B22
:10041000F429F21B102AF80DF00DF10DF20DF30383
:100420007B1B701C222AF81F222AF00A0319F10AEA
:100430000319F20A031D222AF20CF10CF00CF30A44
:100440000319292AFA1FF21300302E2A01300F2037
:100450002E2A02301A202E2A043003200000080021
:06046000FB15FF3008004F
:100466002000FB01FC01F80173080319AA2A72088F
:10047600FA00F2179E30F302F31F9A2AF309F30AE1
:1004860008307302031C6F2AF300F80D7008F80099
:100496007108F0007208F100F20108307302031CC3
:1004A6006F2AF300F80D7008F8007108F000F101EA
:1004B60008307302031C6F2AF300F80D7008F80069
:1004C600F00108307302031C6F2AF300F80DF801DF
:1004D6007308031D0310792A73080319792A031078
:1004E600F20CF10CF00CF80CF30B722A7B1B781C47
:1004F600872A031C872AF80A0319F00A0319F10A46
:100506000319F20AF21BA72AFA1FAA2AF209F1090D
:10051600F009F809F80A0319F00A0319F10A031990
:10052600F20AAA2AF201F101F001F801AA2A7B14C3
:10053600FB1FAD2AF201FA1FAD2AF200F100F0000E
:10054600F800FA0DF20CAD2A0130FC00AF2A00309B
:10055600FC00AF2AFF30FC00FC080319B32A4E2129
:100566007208F3007108F2007008F1007808F000D4
:0205760008007B
:100578007408003A031DD52A7508003A031DD52AC8
:100588007608003A031DD52A7708003A031DD52AB4
:10059800FF30F000FF30F1007F30F200FF30F30051
:1005A8006F2B200077080319632B73080319662B38
:1005B800720876068039FA00F217F617A001720859
:1005C800F8007108FC007008FD007408FD02750849
:1005D800031C750FFC027608031C760FF802F8015D
:1005E800FC01FD01031CFF2A0310F20CF10CF00CB6
:1005F800F80C0130A0007708F302031C092B7E30A9
:100608002007F3070318692B0E2B7E302007F3070A
:10061800031C6C2B1830FA07FD0DFC0DF80DF00DBE
:10062800F10DF20DA00D7408F0027508031C750F8A
:10063800F1027608031C760FF202760DA004201C46
:10064800272B7D14322B7408F00775080318750FD3
:10065800F10776080318760AF2077D10FA031F30AF
:100668007A05031D102B7B1B7D1C592B0310F00DE5
:10067800F10DF20DA00D7408F0027508031C750F3A
:10068800F1027608031C760FF202760D2004013978
:10069800FD070318FC0A0319F80A031D592BF80C67
:1006A800FC0CFD0CF30A0319692BFA1FF8137808E0
:1006B800F2007C08F1007D08F00000306E2B01305C
:1006C80030226E2B02300F206E2B04301A206E2B36
:0806D8000830032000000800B7
:1006E00020003B08F0003C08F100F035F10DF0353A
:1006F000F10D70083907840071083A3D8500000843
:10070000BD0001310008BE0001310008BF00013109
:100710000008C0003B083C040319C62B3508F00054
:100720003608F1003708F2003808F3003D08F400FD
:100730003E08F5003F08F6004008F700D0210130E0
:10074000BB020030BC3B3B08F4003C08F500F4352C
:10075000F50DF435F50D74083907840075083A3D38
:1007600085000008F40001310008F500013100089F
:10077000F60001310008F700AF207008BD007108D5
:10078000BE007208BF007308C0008A2B3D08F0004D
:0E0790003E08F1003F08F2004008F3000800A8
:10079E0020003808F000F101F201F301FF30F005FE
:1007AE000030F1057008BD007108BE007F30700288
:1007BE00F2000030713BF3007208BD007308BE00FA
:1007CE0080307306F00080307002031DF02B003075
:1007DE0072020318142CF401F501F601F701350825
:1007EE00F0003608F1003708F2003808F3006021F7
:1007FE00013003180030F000700803190F2C003080
:10080E00F0000030F1008030F2007F30F300692CF0
:10081E00F001F101F201F301692C3E08003C031DC9
:10082E001A2C3D08183C0318252C3508F000360804
:10083E00F1003708F2003808F300692C3508F00093
:10084E003608F1003708F2003808F3003322AF21E2
:10085E007008B9007108BA007208BB007308BC00BA
:10086E007008F4007108F5007208F6007308F700BE
:10087E003508F0003608F1003708F2003808F300AA
:10088E006021013003180030F00070080319612C4C
:10089E000030F4000030F5000030F6007F30F70035
:1008AE003908F0003A08F1003B08F2003C08F3006A
:1008BE005B21692C3908F0003A08F1003B08F20080
:0608CE003C08F3000800E5
:1008D4002000FB01FC01FA0173080319A82CF2178C
:1008E4008E30F302F31B792C0319792CAB2CF3090A
:1008F400F30A08307302031C8E2CF300F10D720806
:10090400F100F20108307302031C8E2CF10DF10189
:100914007308031D0310962C73080319962C0310F7
:10092400F20CF10CF30B912C7B1B711CA02C031CFF
:10093400A02CF10A0319F20AF21BB72CFA1FBA2CE5
:10094400F209F109F10A0319F20ABA2CF201F101D0
:10095400BA2C7B14FB1FBD2CF201FA1FBD2CFF30F7
:10096400F200F100FA0DF20CBD2C0130FC00BF2C9A
:100974000030FC00BF2CFF30FC00FC080319C32C22
:0C0984004E217108F0007208F10008001C
:1009900020002C08240091001418CF2CCC2C110816
:0409A000F00008005B
:1009A4002000B401F401F501F601F7012C08F00070
:1009B4002D08F1002E08F2002F08F3006021013009
:1009C40003180030F00070080319F22C0030AC0654
:1009D4000030AD068030AE060030AF060130B40002
:1009E4002C08F0002D08F1002E08F2002F08F30067
:1009F4008330F400F930F5002230F6007C30F70043
:100A0400D0217008AC007108AD007208AE00730804
:100A1400AF007008B5007108B6007208B70073081B
:100A2400B800CF237008F4007108F5007208F600CE
:100A34007308F7002C08F0002D08F1002E08F200CE
:100A44002F08F3005B210030F4000030F500003083
:100A5400F6008130F700D0217008AC007108AD00B9
:100A64007208AE007308AF007008F4007108F50056
:100A74007208F6007308F7000030F0000030F1004F
:100A84000030F2008030F3006021013003180030A0
:100A9400F000700803196C2D0030F4000030F500EC
:100AA4000030F6008030F7002C08F0002D08F1002B
:100AB4002E08F2002F08F3005B217008AC007108C7
:100AC400AD007208AE007308AF0034080130031D96
:100AD4000030B4002C08F4002D08F5002E08F600B0
:100AE4002F08F7000030F0000030F1000030F20071
:100AF4007F30F3006021013003180030F0007008EB
:100B040003199D2D2C08F4002D08F5002E08F6007D
:100B14002F08F7000030F0000030F1000030F20040
:100B24008030F3005B217008AC007108AD007208DE
:100B3400AE007308AF002C08F0002D08F1002E0859
:100B4400F2002F08F3002C08F4002D08F5002E08FD
:100B5400F6002F08F700D0217008B0007108B1002A
:100B64007208B2007308B3007008B5007108B600CB
:100B74007208B7007308B800A030B9008630BA0014
:100B84000430BB000030BC0070232C08F4002D0896
:100B9400F5002E08F6002F08F700D0217008AC00ED
:100BA4007108AD007208AE007308AF003008B500DC
:100BB4003108B6003208B7003308B800B430B900C1
:100BC4008630BA000330BB000030BC0070237008CC
:100BD400F4007108F5007208F6007308F7002C0899
:100BE400F0002D08F1002E08F2002F08F300BC22BB
:100BF4007008AC007108AD007208AE007308AF0055
:100C040034080319122E00302C06F00000302D0693
:100C1400F10080302E06F20000302F06F3001A2E69
:100C24002C08F0002D08F1002E08F2002F08F30024
:020C34000800B6
:100C360020007008F8007108F000F101F201F301DC
:100C4600FB01FC019630F300FA017008F100780808
:0A0C5600F000F801F2018020080010
:100C6000FF302000A500FF30A600FF30A700FF30B6
:100C7000A800C830A1000430A2002C30A30000302E
:100C8000A40021000C108C100C152400950140309C
:060C900094009516080017
:100C96002000AA01AB01F030210099008C0123004D
:100CA6008C0120000C16302620002A08F0002B08A4
:100CB600F1001B263930F400FA30F5000E30F6004C
:100CC6007930F700D0217008AC007108AD007208C9
:100CD600AE007308AF00D2240030F4002830F500CF
:100CE6003330F6008A30F700D0216A24333070079B
:100CF600F3000330713DF4007408F000F1010F3089
:100D06007005AC003030AC047308A9000C12C8247E
:100D160020002908AC00C82420000C16AA0A0319D2
:100D2600AB0A00302B02031D9A2EB4302A02031C94
:0A0D36009E2EAA01AB01572E9F2E3E
:100D4000EC34F3344A3490343534953495348F345C
:100D50001734C1345C348B34FD34DB34ED348634E9
:080D60007234B33433348034E3
:100D68002B343434013490347F349D3430348B3414
:100D7800E734FF34593485340034003400347F3488
:020000040001F9
:04000E00843F131701
:00000001FF
