:0200000079285D
:100006007B14FB1F0E28F201FA1FFF30F200F100ED
:0A001600F000FA0DF20CFF300800B4
:1000200021008C100C100C12203024009500970138
:06003000403094000800BE
:100036002000FB01FC01FA01730803195928F21785
:100046008E30F302F31B2A2803192A285C28F309A9
:10005600F30A08307302031C3F28F300F10D7208FF
:10006600F100F20108307302031C3F28F10DF10183
:100076007308031D03104728730803194728031044
:10008600F20CF10CF30B42287B1B711C5128031C4C
:100096005128F10A0319F20AF21B6828FA1F6B2885
:1000A600F209F109F10A0319F20A6B28F201F101CA
:1000B6006B287B14FB1F6E28F201FA1F6E28FF3097
:1000C600F200F100FA0DF20C6E280130FC007028E7
:1000D6000030FC007028FF30FC00FC08031974286F
:0C00E60003207108F0007208F10008000F
:1000F2002000A001A101A201A301F030210099007A
:100102008C0123008C0120000C16102020002008F6
:10011200F0002108F100F035F10DF035F10DD73086
:10012200700784008030713D85000008F0000131C5
:100132000008F10001310008F20001310008F3006B
:100142001B207008A2007108A30000307004F300A5
:1001520071083038F4007308A2007408A3000C126E
:100162007408F000F1017008240091000000000002
:10017200000000000000200022082400910000007E
:100182000000000000000000000020000C16A00A81
:100192000319A10A00302102031DD128B430200224
:0C01A200031CD528A001A1018728D62845
:1001AE000034C0344C3488340034403459348834EC
:1001BE000034C034653488340034403472348834AA
:1001CE000034C0347E3488340034A034053489348D
:1001DE000034E0340B348934003400341234893462
:1001EE000034403418348934003460341E34893479
:1001FE000034A034243489340034C0342A34893491
:10020E000034E034303489340034003437348934E7
:10021E00003400343D34893400342034433489347E
:10022E000034203449348934003420344F34893436
:10023E000034203455348934003400345B3489342E
:10024E000034E034603489340034C0346634893488
:10025E000034A0346C348934003460347234893400
:10026E0000342034783489340034C0347D348934F9
:10027E000034C03401348A340034803404348A3477
:10028E000034503407348A34003410340A348A343B
:10029E000034C0340C348A34003470340F348A3451
:1002AE000034203412348A340034C03414348A3486
:1002BE000034603417348A340034F03419348A34FC
:1002CE00003480341C348A34003400341F348A34B1
:1002DE000034803421348A340034F03423348A34A8
:1002EE000034603426348A340034C03428348A34DE
:1002FE00003410342B348A34003460342D348A3474
:10030E000034A0342F348A340034E03431348A344B
:10031E000034103434348A340034303436348A3471
:10032E000034503438348A34003460343A348A34E9
:10033E00003470343C348A34003470343E348A34A1
:10034E000034603440348A340034403442348A34C9
:10035E000034203444348A340034F03445348A3442
:10036E000034B03447348A340034703449348A341B
:10037E00003420344B348A340034C0344C348A3444
:10038E00003450344E348A340034E0344F348A34DE
:10039E000034603451348A340034D03452348A34C8
:1003AE000034303454348A340034903455348A3422
:1003BE000034E03456348A340034203458348A34CD
:1003CE000034503459348A34003470345A348A34F8
:1003DE00003490345B348A34003490345C348A3484
:1003EE00003490345D348A34003480345E348A3480
:1003FE00003460345F348A340034403460348A34DC
:10040E000034003461348A340034C03461348A34A8
:10041E000034703462348A340034103463348A34D5
:10042E000034A03463348A340034203464348A3483
:10043E000034A03464348A340034003465348A3491
:10044E000034603465348A340034B03465348A3410
:10045E000034F03465348A340034203466348A34FF
:10046E000034403466348A340034503466348A346E
:10047E000034603466348A340034503466348A343E
:10048E000034403466348A340034203466348A347E
:10049E000034F03465348A340034B03465348A3430
:1004AE000034603465348A340034003465348A3460
:1004BE000034A03464348A340034203464348A34F2
:1004CE000034A03463348A340034103463348A34F4
:1004DE000034703462348A340034C03461348A3467
:1004EE000034003461348A340034403460348A3449
:1004FE00003460345F348A34003480345E348A349D
:10050E00003490345D348A34003490345C348A3450
:10051E00003490345B348A34003470345A348A3464
:10052E000034503459348A340034203458348A34E8
:10053E000034E03456348A340034903455348A34DE
:10054E000034303454348A340034D03452348A3443
:10055E000034603451348A340034E0344F348A34F9
:10056E00003450344E348A340034C0344C348A341F
:10057E00003420344B348A340034703449348A3495
:10058E000034B03447348A340034F03445348A347D
:10059E000034203444348A340034403442348A34B3
:1005AE000034603440348A34003470343E348A343B
:1005BE00003470343C348A34003460343A348A3433
:1005CE000034503438348A340034303436348A347B
:1005DE000034103434348A340034E03431348A3404
:1005EE000034A0342F348A34003460342D348A34ED
:1005FE00003410342B348A340034C03428348A3416
:10060E000034603426348A340034F03423348A348F
:10061E000034803421348A34003400341F348A3458
:10062E00003480341C348A340034F03419348A3463
:10063E000034603417348A340034C03414348A34AD
:10064E000034203412348A34003470340F348A3437
:10065E000034C0340C348A34003410340A348A34F2
:10066E000034503407348A340034803404348A34ED
:10067E000034C03401348A340034C0347D348934BB
:10068E000034203478348934003460347234893440
:10069E000034A0346C3489340034C0346634893468
:1006AE000034E03460348934003400345B348934EF
:1006BE000034203455348934003420344F34893496
:1006CE00003420344934893400342034433489349E
:1006DE00003400343D3489340034003437348934E6
:1006EE000034E034303489340034C0342A34893450
:1006FE000034A03424348934003460341E348934F8
:10070E0000344034183489340034003412348934BF
:10071E000034E0340B3489340034A0340534893489
:10072E000034C0347E34883400344034723488341B
:10073E000034C0346534883400344034593488343D
:020000040001F9
:04000E00843F131701
:00000001FF
